{
  "_format": "hh-sol-artifact-1",
  "contractName": "ShadowVaultV2",
  "sourceName": "contracts/ShadowVaultV2.sol",
  "abi": [
    {
      "inputs": [
        {
          "internalType": "address",
          "name": "initialOwner",
          "type": "address"
        }
      ],
      "stateMutability": "nonpayable",
      "type": "constructor"
    },
    {
      "inputs": [],
      "name": "EnforcedPause",
      "type": "error"
    },
    {
      "inputs": [],
      "name": "ExpectedPause",
      "type": "error"
    },
    {
      "inputs": [
        {
          "internalType": "address",
          "name": "owner",
          "type": "address"
        }
      ],
      "name": "OwnableInvalidOwner",
      "type": "error"
    },
    {
      "inputs": [
        {
          "internalType": "address",
          "name": "account",
          "type": "address"
        }
      ],
      "name": "OwnableUnauthorizedAccount",
      "type": "error"
    },
    {
      "inputs": [],
      "name": "ReentrancyGuardReentrantCall",
      "type": "error"
    },
    {
      "anonymous": false,
      "inputs": [
        {
          "indexed": true,
          "internalType": "address",
          "name": "previousOwner",
          "type": "address"
        },
        {
          "indexed": true,
          "internalType": "address",
          "name": "newOwner",
          "type": "address"
        }
      ],
      "name": "OwnershipTransferred",
      "type": "event"
    },
    {
      "anonymous": false,
      "inputs": [
        {
          "indexed": false,
          "internalType": "address",
          "name": "account",
          "type": "address"
        }
      ],
      "name": "Paused",
      "type": "event"
    },
    {
      "anonymous": false,
      "inputs": [
        {
          "indexed": false,
          "internalType": "address",
          "name": "account",
          "type": "address"
        }
      ],
      "name": "Unpaused",
      "type": "event"
    },
    {
      "anonymous": false,
      "inputs": [
        {
          "indexed": true,
          "internalType": "address",
          "name": "user",
          "type": "address"
        },
        {
          "indexed": true,
          "internalType": "uint256",
          "name": "entryId",
          "type": "uint256"
        }
      ],
      "name": "VaultItemDeleted",
      "type": "event"
    },
    {
      "anonymous": false,
      "inputs": [
        {
          "indexed": true,
          "internalType": "address",
          "name": "user",
          "type": "address"
        },
        {
          "indexed": true,
          "internalType": "uint256",
          "name": "entryId",
          "type": "uint256"
        },
        {
          "indexed": true,
          "internalType": "string",
          "name": "storedHash",
          "type": "string"
        },
        {
          "indexed": false,
          "internalType": "string",
          "name": "walrusCid",
          "type": "string"
        }
      ],
      "name": "VaultItemStored",
      "type": "event"
    },
    {
      "anonymous": false,
      "inputs": [
        {
          "indexed": true,
          "internalType": "address",
          "name": "user",
          "type": "address"
        },
        {
          "indexed": true,
          "internalType": "uint256",
          "name": "entryId",
          "type": "uint256"
        },
        {
          "indexed": true,
          "internalType": "string",
          "name": "storedHash",
          "type": "string"
        },
        {
          "indexed": false,
          "internalType": "string",
          "name": "walrusCid",
          "type": "string"
        }
      ],
      "name": "VaultItemUpdated",
      "type": "event"
    },
    {
      "inputs": [
        {
          "internalType": "uint256",
          "name": "entryId",
          "type": "uint256"
        }
      ],
      "name": "deleteVaultItem",
      "outputs": [],
      "stateMutability": "nonpayable",
      "type": "function"
    },
    {
      "inputs": [
        {
          "internalType": "address",
          "name": "",
          "type": "address"
        }
      ],
      "name": "entryCount",
      "outputs": [
        {
          "internalType": "uint256",
          "name": "",
          "type": "uint256"
        }
      ],
      "stateMutability": "view",
      "type": "function"
    },
    {
      "inputs": [
        {
          "internalType": "address",
          "name": "user",
          "type": "address"
        }
      ],
      "name": "getUserEntryCount",
      "outputs": [
        {
          "internalType": "uint256",
          "name": "",
          "type": "uint256"
        }
      ],
      "stateMutability": "view",
      "type": "function"
    },
    {
      "inputs": [
        {
          "internalType": "address",
          "name": "user",
          "type": "address"
        }
      ],
      "name": "getUserVaultItems",
      "outputs": [
        {
          "components": [
            {
              "internalType": "string",
              "name": "storedHash",
              "type": "string"
            },
            {
              "internalType": "string",
              "name": "walrusCid",
              "type": "string"
            },
            {
              "internalType": "uint256",
              "name": "timestamp",
              "type": "uint256"
            },
            {
              "internalType": "bool",
              "name": "isActive",
              "type": "bool"
            }
          ],
          "internalType": "struct ShadowVaultV2.VaultItem[]",
          "name": "items",
          "type": "tuple[]"
        },
        {
          "internalType": "uint256[]",
          "name": "itemIds",
          "type": "uint256[]"
        }
      ],
      "stateMutability": "view",
      "type": "function"
    },
    {
      "inputs": [
        {
          "internalType": "address",
          "name": "user",
          "type": "address"
        },
        {
          "internalType": "uint256",
          "name": "entryId",
          "type": "uint256"
        }
      ],
      "name": "getVaultItem",
      "outputs": [
        {
          "components": [
            {
              "internalType": "string",
              "name": "storedHash",
              "type": "string"
            },
            {
              "internalType": "string",
              "name": "walrusCid",
              "type": "string"
            },
            {
              "internalType": "uint256",
              "name": "timestamp",
              "type": "uint256"
            },
            {
              "internalType": "bool",
              "name": "isActive",
              "type": "bool"
            }
          ],
          "internalType": "struct ShadowVaultV2.VaultItem",
          "name": "",
          "type": "tuple"
        }
      ],
      "stateMutability": "view",
      "type": "function"
    },
    {
      "inputs": [
        {
          "internalType": "address",
          "name": "user",
          "type": "address"
        },
        {
          "internalType": "uint256",
          "name": "entryId",
          "type": "uint256"
        }
      ],
      "name": "isVaultItemActive",
      "outputs": [
        {
          "internalType": "bool",
          "name": "",
          "type": "bool"
        }
      ],
      "stateMutability": "view",
      "type": "function"
    },
    {
      "inputs": [],
      "name": "owner",
      "outputs": [
        {
          "internalType": "address",
          "name": "",
          "type": "address"
        }
      ],
      "stateMutability": "view",
      "type": "function"
    },
    {
      "inputs": [],
      "name": "pause",
      "outputs": [],
      "stateMutability": "nonpayable",
      "type": "function"
    },
    {
      "inputs": [],
      "name": "paused",
      "outputs": [
        {
          "internalType": "bool",
          "name": "",
          "type": "bool"
        }
      ],
      "stateMutability": "view",
      "type": "function"
    },
    {
      "inputs": [],
      "name": "renounceOwnership",
      "outputs": [],
      "stateMutability": "nonpayable",
      "type": "function"
    },
    {
      "inputs": [
        {
          "internalType": "string",
          "name": "storedHash",
          "type": "string"
        },
        {
          "internalType": "string",
          "name": "walrusCid",
          "type": "string"
        }
      ],
      "name": "storeVaultItem",
      "outputs": [],
      "stateMutability": "nonpayable",
      "type": "function"
    },
    {
      "inputs": [
        {
          "internalType": "address",
          "name": "newOwner",
          "type": "address"
        }
      ],
      "name": "transferOwnership",
      "outputs": [],
      "stateMutability": "nonpayable",
      "type": "function"
    },
    {
      "inputs": [],
      "name": "unpause",
      "outputs": [],
      "stateMutability": "nonpayable",
      "type": "function"
    },
    {
      "inputs": [
        {
          "internalType": "uint256",
          "name": "entryId",
          "type": "uint256"
        },
        {
          "internalType": "string",
          "name": "storedHash",
          "type": "string"
        },
        {
          "internalType": "string",
          "name": "walrusCid",
          "type": "string"
        }
      ],
      "name": "updateVaultItem",
      "outputs": [],
      "stateMutability": "nonpayable",
      "type": "function"
    },
    {
      "inputs": [],
      "name": "version",
      "outputs": [
        {
          "internalType": "string",
          "name": "",
          "type": "string"
        }
      ],
      "stateMutability": "pure",
      "type": "function"
    }
  ],
  "bytecode": "0x608060405234801561001057600080fd5b5060405161161738038061161783398101604081905261002f916100c2565b806001600160a01b03811661005e57604051631e4fbdf760e01b81526000600482015260240160405180910390fd5b61006781610072565b5050600180556100f2565b600080546001600160a01b038381166001600160a01b0319831681178455604051919092169283917f8be0079c531659141344cd1fd0a4f28419497f9722a3daafe3b4186f6b6457e09190a35050565b6000602082840312156100d457600080fd5b81516001600160a01b03811681146100eb57600080fd5b9392505050565b611516806101016000396000f3fe608060405234801561001057600080fd5b50600436106100f55760003560e01c8063715018a611610097578063a9866e4911610066578063a9866e491461020b578063b2a8116a1461021e578063e990e82614610247578063f2fde38b1461025a57600080fd5b8063715018a6146101cd5780637bd3a743146101d55780638456cb59146101e85780638da5cb5b146101f057600080fd5b806341dd1ef8116100d357806341dd1ef81461014057806353be64071461016e57806354fd4d501461018f5780635c975abb146101b657600080fd5b8063206a70c3146100fa5780632f6392c2146101235780633f4ba83a14610138575b600080fd5b61010d610108366004610e81565b61026d565b60405161011a9190610f42565b60405180910390f35b610136610131366004610fa5565b61044e565b005b610136610619565b61016061014e36600461101f565b60046020526000908152604090205481565b60405190815260200161011a565b61018161017c36600461101f565b61062b565b60405161011a92919061103a565b60408051808201825260058152640322e302e360dc1b6020820152905161011a91906110d5565b60025460ff165b604051901515815260200161011a565b610136610959565b6101366101e33660046110e8565b61096b565b610136610a7a565b6000546040516001600160a01b03909116815260200161011a565b610136610219366004611101565b610a8a565b61016061022c36600461101f565b6001600160a01b031660009081526004602052604090205490565b6101bd610255366004610e81565b610c57565b61013661026836600461101f565b610cad565b61029a60405180608001604052806060815260200160608152602001600081526020016000151581525090565b6001600160a01b03831660009081526004602052604090205482106102da5760405162461bcd60e51b81526004016102d19061116d565b60405180910390fd5b6001600160a01b038316600090815260036020908152604080832085845290915290819020815160808101909252805482908290610317906111b0565b80601f0160208091040260200160405190810160405280929190818152602001828054610343906111b0565b80156103905780601f1061036557610100808354040283529160200191610390565b820191906000526020600020905b81548152906001019060200180831161037357829003601f168201915b505050505081526020016001820180546103a9906111b0565b80601f01602080910402602001604051908101604052809291908181526020018280546103d5906111b0565b80156104225780601f106103f757610100808354040283529160200191610422565b820191906000526020600020905b81548152906001019060200180831161040557829003601f168201915b50505091835250506002820154602082015260039091015460ff16151560409091015290505b92915050565b610456610ce8565b61045e610d0c565b33600090815260046020526040902054851061048c5760405162461bcd60e51b81526004016102d19061116d565b336000908152600360208181526040808420898552909152909120015460ff166105035760405162461bcd60e51b815260206004820152602260248201527f536861646f775661756c7456323a20656e747279206973206e6f742061637469604482015261766560f01b60648201526084016102d1565b826105205760405162461bcd60e51b81526004016102d1906111ea565b8061053d5760405162461bcd60e51b81526004016102d190611234565b33600090815260036020908152604080832088845290915290206105628486836112e4565b50336000908152600360209081526040808320888452909152902060010161058b8284836112e4565b503360009081526003602090815260408083208884529091529081902042600290910155516105bd90859085906113a4565b604051809103902085336001600160a01b03167f890de1d3cefa52e67678a626c937f5c8ddc91f92c39205fb40850e474a2052f485856040516106019291906113b4565b60405180910390a461061260018055565b5050505050565b610621610d36565b610629610d63565b565b6001600160a01b038116600090815260046020526040812054606091829190805b82811015610698576001600160a01b0386166000908152600360208181526040808420858552909152909120015460ff1615610690578161068c816113e3565b9250505b60010161064c565b508067ffffffffffffffff8111156106b2576106b261127d565b60405190808252806020026020018201604052801561071057816020015b6106fd60405180608001604052806060815260200160608152602001600081526020016000151581525090565b8152602001906001900390816106d05790505b5093508067ffffffffffffffff81111561072c5761072c61127d565b604051908082528060200260200182016040528015610755578160200160208202803683370190505b5092506000805b83811015610950576001600160a01b0387166000908152600360208181526040808420858552909152909120015460ff1615610948576001600160a01b0387166000908152600360209081526040808320848452909152908190208151608081019092528054829082906107cf906111b0565b80601f01602080910402602001604051908101604052809291908181526020018280546107fb906111b0565b80156108485780601f1061081d57610100808354040283529160200191610848565b820191906000526020600020905b81548152906001019060200180831161082b57829003601f168201915b50505050508152602001600182018054610861906111b0565b80601f016020809104026020016040519081016040528092919081815260200182805461088d906111b0565b80156108da5780601f106108af576101008083540402835291602001916108da565b820191906000526020600020905b8154815290600101906020018083116108bd57829003601f168201915b50505091835250506002820154602082015260039091015460ff16151560409091015286518790849081106109115761091161140a565b60200260200101819052508085838151811061092f5761092f61140a565b602090810291909101015281610944816113e3565b9250505b60010161075c565b50505050915091565b610961610d36565b6106296000610db5565b610973610ce8565b61097b610d0c565b3360009081526004602052604090205481106109a95760405162461bcd60e51b81526004016102d19061116d565b336000908152600360208181526040808420858552909152909120015460ff16610a215760405162461bcd60e51b8152602060048201526024808201527f536861646f775661756c7456323a20656e74727920616c72656164792064656c604482015263195d195960e21b60648201526084016102d1565b336000818152600360208181526040808420868552909152808320909101805460ff19169055518392917f2aaa4bdcd12331616bb47f101e1158a22dbec9b28251cf1e233318851dd264dc91a3610a7760018055565b50565b610a82610d36565b610629610e05565b610a92610ce8565b610a9a610d0c565b82610ab75760405162461bcd60e51b81526004016102d1906111ea565b80610ad45760405162461bcd60e51b81526004016102d190611234565b3360009081526004602090815260409182902054825160a0601f880184900490930281018301909352608083018681529092918291908890889081908501838280828437600092019190915250505090825250604080516020601f87018190048102820181019092528581529181019190869086908190840183828082843760009201829052509385525050426020808501919091526001604094850152338352600381528383208684529052502081518190610b919082611420565b5060208201516001820190610ba69082611420565b5060408281015160028301556060909201516003909101805460ff19169115159190911790553360009081526004602052908120805491610be6836113e3565b91905055508484604051610bfb9291906113a4565b604051809103902081336001600160a01b03167f9c0020ccea4ceb512906bc913e131fd7cfb8f0be3f40e57bc2c8446bbed42d578686604051610c3f9291906113b4565b60405180910390a450610c5160018055565b50505050565b6001600160a01b0382166000908152600460205260408120548210610c7e57506000610448565b506001600160a01b03919091166000908152600360208181526040808420948452939052919020015460ff1690565b610cb5610d36565b6001600160a01b038116610cdf57604051631e4fbdf760e01b8152600060048201526024016102d1565b610a7781610db5565b60025460ff16156106295760405163d93c066560e01b815260040160405180910390fd5b600260015403610d2f57604051633ee5aeb560e01b815260040160405180910390fd5b6002600155565b6000546001600160a01b031633146106295760405163118cdaa760e01b81523360048201526024016102d1565b610d6b610e42565b6002805460ff191690557f5db9ee0a495bf2e6ff9c91a7834c1ba4fdd244a5e8aa4e537bd38aeae4b073aa335b6040516001600160a01b03909116815260200160405180910390a1565b600080546001600160a01b038381166001600160a01b0319831681178455604051919092169283917f8be0079c531659141344cd1fd0a4f28419497f9722a3daafe3b4186f6b6457e09190a35050565b610e0d610ce8565b6002805460ff191660011790557f62e78cea01bee320cd4e420270b5ea74000d11b0c9f74754ebdbfc544b05a258610d983390565b60025460ff1661062957604051638dfc202b60e01b815260040160405180910390fd5b80356001600160a01b0381168114610e7c57600080fd5b919050565b60008060408385031215610e9457600080fd5b610e9d83610e65565b946020939093013593505050565b6000815180845260005b81811015610ed157602081850181015186830182015201610eb5565b506000602082860101526020601f19601f83011685010191505092915050565b6000815160808452610f066080850182610eab565b905060208301518482036020860152610f1f8282610eab565b915050604083015160408501526060830151151560608501528091505092915050565b602081526000610f556020830184610ef1565b9392505050565b60008083601f840112610f6e57600080fd5b50813567ffffffffffffffff811115610f8657600080fd5b602083019150836020828501011115610f9e57600080fd5b9250929050565b600080600080600060608688031215610fbd57600080fd5b85359450602086013567ffffffffffffffff80821115610fdc57600080fd5b610fe889838a01610f5c565b9096509450604088013591508082111561100157600080fd5b5061100e88828901610f5c565b969995985093965092949392505050565b60006020828403121561103157600080fd5b610f5582610e65565b6000604082016040835280855180835260608501915060608160051b8601019250602080880160005b8381101561109157605f1988870301855261107f868351610ef1565b95509382019390820190600101611063565b50508584038187015286518085528782019482019350915060005b828110156110c8578451845293810193928101926001016110ac565b5091979650505050505050565b602081526000610f556020830184610eab565b6000602082840312156110fa57600080fd5b5035919050565b6000806000806040858703121561111757600080fd5b843567ffffffffffffffff8082111561112f57600080fd5b61113b88838901610f5c565b9096509450602087013591508082111561115457600080fd5b5061116187828801610f5c565b95989497509550505050565b60208082526023908201527f536861646f775661756c7456323a20656e74727920646f6573206e6f742065786040820152621a5cdd60ea1b606082015260800190565b600181811c908216806111c457607f821691505b6020821081036111e457634e487b7160e01b600052602260045260246000fd5b50919050565b6020808252602a908201527f536861646f775661756c7456323a2073746f72656420686173682063616e6e6f6040820152697420626520656d70747960b01b606082015260800190565b60208082526029908201527f536861646f775661756c7456323a2057616c727573204349442063616e6e6f7460408201526820626520656d70747960b81b606082015260800190565b634e487b7160e01b600052604160045260246000fd5b601f8211156112df576000816000526020600020601f850160051c810160208610156112bc5750805b601f850160051c820191505b818110156112db578281556001016112c8565b5050505b505050565b67ffffffffffffffff8311156112fc576112fc61127d565b6113108361130a83546111b0565b83611293565b6000601f841160018114611344576000851561132c5750838201355b600019600387901b1c1916600186901b178355610612565b600083815260209020601f19861690835b828110156113755786850135825560209485019460019092019101611355565b50868210156113925760001960f88860031b161c19848701351681555b505060018560011b0183555050505050565b8183823760009101908152919050565b60208152816020820152818360408301376000818301604090810191909152601f909201601f19160101919050565b60006001820161140357634e487b7160e01b600052601160045260246000fd5b5060010190565b634e487b7160e01b600052603260045260246000fd5b815167ffffffffffffffff81111561143a5761143a61127d565b61144e8161144884546111b0565b84611293565b602080601f831160018114611483576000841561146b5750858301515b600019600386901b1c1916600185901b1785556112db565b600085815260208120601f198616915b828110156114b257888601518255948401946001909101908401611493565b50858210156114d05787850151600019600388901b60f8161c191681555b5050505050600190811b0190555056fea2646970667358221220afd9d675984be355da3747ca40506fbb5cd9580ef5e7bddd514a85bd1f394b7364736f6c63430008180033",
  "linkReferences": {},
  "deployedLinkReferences": {}
}